:060000000A128A11FC2F18
:100F6600831603138801FF308312031388000D30A4
:100F7600F200AF30F100B630F000F00BC02FF10BED
:100F8600C02FF20BC02F00008312031388010D300F
:100F9600F200AF30F100B630F000F00BD02FF10BBD
:100FA600D02FF20BD02F0000FF30831203138800DE
:100FB6000D30F200AF30F100B630F000F00BE12F4B
:100FC600F10BE12FF20BE12F0000831203138801CE
:100FD6000D30F200AF30F100B630F000F00BF12F1B
:100FE600F10BF12FF20BF12F0000B62F0A128A1126
:0A0FF600002883010A128A11B32FAC
:08400000FF3FFF3FFF3FFF3FC0
:04400E00F23FFF3F3F
:00000001FF
